:020000040800F2
:10000000880F002069020008813F0008E5280008E9
:10001000B13B0008210E0008D36400080000000076
:10002000000000000000000000000000B5520008C1
:10003000ED200008000000000D4A0008E55500080A
:10004000830200088302000883020008830200087C
:10005000830200088302000883020008830200086C
:1000600083020008830200084D2400088302000870
:100070008302000883020008830200082D1D000887
:10008000830200088302000883020008830200083C
:100090008110000883020008830200088302000820
:1000A000830200088302000883020008830200081C
:1000B000830200088302000883020008830200080C
:1000C00083020008830200088302000883020008FC
:1000D00083020008830200088302000855600008BC
:1000E00083020008830200088302000883020008DC
:1000F00083020008830200088302000883020008CC
:1001000083020008830200088302000883020008BB
:10011000F15E000883020008995600088302000877
:100120008302000883020008311D000883020008D2
:10013000830200088302000883020008830200088B
:1001400049130008830200088302000883020008A4
:10015000830200088302000883020008556100083A
:10016000830200088302000883020008830200085B
:10017000830200088302000883020008830200084B
:10018000830200088302000800F002F800F05CF827
:100190000AA090E8000C82448344AAF10107DA45E2
:1001A00001D100F051F8AFF2090EBAE80F0013F0D8
:1001B000010F18BFFB1A43F0010318472472000017
:1001C000447200000A444FF0000C10F8013B13F099
:1001D000070408BF10F8014B1D1108BF10F8015BA0
:1001E000641E05D010F8016B641E01F8016BF9D193
:1001F00013F0080F1EBF10F8014BAD1C0C1B09D1EA
:100200006D1E58BF01F801CBFAD505E014F8016B5B
:1002100001F8016B6D1EF9D59142D6D370470000ED
:100220000023002400250026103A28BF78C1FBD8FF
:10023000520728BF30C148BF0B6070471FB507F099
:10024000A6F81FBD10B510BD00F0D6F81146FFF797
:10025000F5FF06F0F7FB00F0F4F803B4FFF7F2FF48
:1002600003BC06F097FB0000094880470948004797
:10027000FEE7FEE7FEE7FEE7FEE7FEE7FEE7FEE756
:10028000FEE7FEE704480549054A064B70470000B3
:10029000E95500088901000888090020880F00201E
:1002A000880B0020880B00207047032A40F2308022
:1002B00010F0030C00F0158011F8013BBCF1020FA7
:1002C000624498BF11F801CB00F8013B38BF11F828
:1002D000013BA2F1040298BF00F801CB38BF00F83F
:1002E000013B11F0030300F05080083AC0F0088091
:1002F00051F8043B083A51F804CBA0E80810F5E7A0
:10030000121D5CBF51F8043B40F8043BAFF3008082
:10031000D20724BF11F8013B11F801CB48BF11F8F7
:10032000012B24BF00F8013B00F801CB48BF00F8C7
:10033000012B70474FF0000200B5134694469646D5
:10034000203922BFA0E80C50A0E80C50B1F12001E8
:10035000BFF4F7AF090728BFA0E80C5048BF0CC096
:100360005DF804EB890028BF40F8042B08BF7047F4
:1003700048BF20F8022B11F0804F18BF00F8012B66
:100380007047704770477047704710B5203AC0F00B
:100390000B80B1E81850203AA0E81850B1E8185086
:1003A000A0E81850BFF4F5AF5FEA027C24BFB1E8C3
:1003B0001850A0E8185044BF18C918C0BDE8104034
:1003C0005FEA827C24BF51F8043B40F8043B08BF3D
:1003D0007047D20728BF31F8023B48BF11F8012B04
:1003E00028BF20F8023B48BF00F8012B70470000EF
:1003F00000487047280900207546FFF7F9FFAE4610
:1004000005006946534620F00700854618B020B520
:10041000FFF738FFBDE820404FF000064FF000071F
:100420004FF000084FF0000B21F00701AC46ACE89C
:10043000C009ACE8C009ACE8C009ACE8C0098D4609
:1004400070470446AFF300802046FFF706FF000028
:1004500000B5002005F0B8F8012004F0E1FF00200D
:1004600004F086FF00204B490880012004F0D8FFEB
:1004700001287BD1002004F07BFF0128F9D14648F8
:10048000006818B945480068434908604348006857
:1004900041490968401AB0F5C87F06D2DC204049BE
:1004A000088000203B49088010E03C4800683A4939
:1004B0000968401AB0F5FA7F08D93748006828B1B2
:1004C0005A20374908800020324908803548007892
:1004D00048B93448407830B90A20314908800020B2
:1004E0002C49088020E02F48007801280DD12D48A4
:1004F000407850B9012005F067F80A2028490880A3
:100500006FF01D00234908800EE02648007858B996
:1005100024484078012807D105F056F80A202049E0
:1005200008801E201B4908801E48807901280DD1B3
:100530001C48C079012809D12820194908800020C9
:100540001449088014490860012000BD15488079CD
:1005500068B91448C079012809D105F035F8282078
:100560000F4908806FF01D000A4908800FE00D4810
:10057000807901280BD10B48C07940B9012005F0E2
:1005800023F82820064908801E2002490880002000
:10059000DBE700009201002020000020B4010020D1
:1005A0008E0100205408002010B5002013E09FEDBC
:1005B000390A10EE101A00EB4012374B03EB4202DF
:1005C00051609FED360A10EE101A00EB401203EB5B
:1005D00042021162401C0428E9DB314800780628F9
:1005E00056D2DFE800F0030D151D252D01202D4901
:1005F000087000F0FFF8012801D12949087047E090
:10060000FFF726FF012802D10220254908703FE0AC
:1006100000F04EF8012802D103202149087037E08C
:1006200000F082F9012802D104201D4908702FE052
:10063000FFF70EFF012802D105201949087027E0B5
:1006400000F036F8012822D1052004F0B7FF002081
:10065000134908701349087000BF13E09FED120A98
:1006600010EE101A00EB40120B4B03EB42025160EC
:100670009FED0E0A10EE101A00EB401203EB42023F
:100680001162401C0428E9DB012004F09DFF00BF3B
:1006900000BF10BD3E0AD73D300000206E43D14759
:1006A000080000205E080020295C0F3D49828B472E
:1006B00000B54948006818B94848006846490860CC
:1006C0004648006844490968401AB0F5C87F64D9B3
:1006D000002004F079FF002004F0A2FE01280AD1D6
:1006E000002004F045FE012805D13D48007810B9EE
:1006F00001203B49087000203A49088038480078BA
:1007000001283ED13848006850B93448006836495D
:1007100008604FF48C70354908800020314908800A
:100720002E48006830490968401AB0F5AF7F0BD9F0
:100730002D48006840B12E48007928B9012004F006
:100740006FFE012004F014FE244800682649096861
:10075000401AB0F5E17F3DD923480068002839D020
:1007600023480079C8B928202049088000201D4965
:1007700008801D490860184908601949087001205F
:1007800000BD1B48007848B91948407830B9282086
:10079000164908800020134908801BE0144800789F
:1007A00001280AD11248407838B928200F4908801A
:1007B0006FF01D000B4908800CE00D48007848B927
:1007C0000B484078012805D12820084908801E20C0
:1007D000044908800020D3E728000020B40100204D
:1007E0000900002092010020240000208E0100203A
:1007F0005408002000B5002004F0E6FE012004F0BB
:100800000FFE012004F0B4FD0020444908800120BF
:1008100004F006FE012803D104F0AAFD012806D049
:1008200046203F49088000203C49088005E06E20B2
:100830003B490880002039490880012004F0F0FD80
:1008400001280CD13748807848B93648C07830B98B
:100850000A20334908800020304908802AE001201E
:1008600004F0DEFD012811D12E48807801280DD139
:100870002C48C07850B9012004F0A6FE0A2028496F
:1008800008806FF01D002549088013E0012004F066
:10089000C7FD01280ED12348807858B92148C07877
:1008A000012807D104F090FE0A201D4908801E206F
:1008B0001A4908801B48007A01280BD11948407A50
:1008C000012807D1282016490880002013490880F4
:1008D000012000BD1348007A68B91248407A012807
:1008E00009D104F071FE28200D4908806FF01D0029
:1008F0000A4908800FE00B48007A01280BD109480B
:10090000407A40B9012004F05FFE282004490880A5
:100910001E20024908800020DBE700009201002031
:100920008E0100205408002000B5002004F04CFE89
:10093000012004F075FD012004F01AFD0020444957
:100940000880012004F06CFD012803D104F010FDA3
:10095000012806D046203F49088000203C490880F5
:1009600005E06E203B4908800020394908800120BD
:1009700004F056FD01280CD13748807848B9364834
:10098000C07830B90A2033490880002030490880F7
:100990002AE0012004F044FD012811D12E4880787E
:1009A00001280DD12C48C07850B9012004F00CFE6C
:1009B0000A20284908806FF01D002549088013E0AF
:1009C000012004F02DFD01280ED12348807858B96C
:1009D0002148C078012807D104F0F6FD0A201D49FE
:1009E00008801E201A4908801B48007A01280BD174
:1009F0001948407A012807D128201649088000208C
:100A000013490880012000BD1348007A68B91248D4
:100A1000407A012809D104F0D7FD28200D4908802B
:100A20006FF01D000A4908800FE00B48007A01288A
:100A30000BD10948407A40B9012004F0C5FD2820B7
:100A4000044908801E20024908800020DBE70000DE
:100A5000920100208E0100205408002010B52DEDD9
:100A6000028BB0EE408AD04890ED000AF7EE000A03
:100A700030EEC00ACD48D0ED000A20EE200ACA4868
:100A8000D0ED000A08EE200AC84880ED000A01F007
:100A900023FF05287ED1C64800780028FAD1C54832
:100AA000007820B1012842D002283FD1DAE01E2090
:100AB000C149086348638863C863BC4890ED000A75
:100AC000F2EE000AB4EEE00AF1EE10FA0BDDBB48DC
:100AD00000884FF6FE71884205DAB8480088401C4D
:100AE000B649088018E0B14890ED000AFAEE000A15
:100AF000B4EEE00AF1EE10FA0BD2B04800884FF6DF
:100B0000FE71884205DAAD480088401CAB49088078
:100B100002E00020A9490880A8480088642805DD73
:100B20000120A44908700020A4490880DFE09F4804
:100B300090ED000AB5EEC00AF1EE10FA31DD9E48E4
:100B4000006B1E2814DC9C4890ED0A0AB8EEC00A1F
:100B50009648D0ED000AB2EE081A00EE810ABDEE0A
:100B6000C00A954880ED0E0A806B9349C86347E040
:100B7000914890ED080AB8EEC00A8C48D0ED000A02
:100B8000F1EE600AB2EE081A00EE810ABDEEC00A6C
:100B9000894800E0ACE080ED0C0A006B86494863B0
:100BA0002EE08548806B1E2816DC834890ED080AED
:100BB000B8EEC00A7D48D0ED000AF1EE600AB2EE50
:100BC000081A00EE810ABDEEC00A7B4880ED0C0ACF
:100BD000006B7949486313E0774890ED0A0AB8EE54
:100BE000C00A7248D0ED000AB2EE081A00EE810A7F
:100BF000BDEEC00A704880ED0E0A806B6E49C86376
:100C00006A4890ED000AB5EEC00AF1EE10FA02DD76
:100C100090ED000A04E0654890ED000AB1EE400A4C
:100C2000DFED670AB4EEE00AF1EE10FA0BD2654888
:100C300000884FF6FE71884205DA62480088401C41
:100C40006049088002E000205E4908805D48008815
:100C5000B0F5967F05DD02205649087000205949FD
:100C6000088044E0514890ED000AB5EEC00AF1EE6C
:100C700010FA02DD90ED000A04E04C4890ED000A05
:100C8000B1EE400AF1EE000AB4EEE00AF1EE10FA1D
:100C900003DD0120474908701FE04748006B4649C3
:100CA000896B401A002805DD4348006B4249896B77
:100CB000401A04E04048806B3F49096B401AB0F588
:100CC000967F0ADA404800884FF6FE71884204DABF
:100CD0003D480088401C3C4908803B4800889628D5
:100CE00004DD0020334908703749088000BF00BF89
:100CF0003148006B1E2801DA1E2001E02E48006BEF
:100D00002D4908630846006B40F29241884201DD9C
:100D1000084601E02848006B274908630846406BF5
:100D20001E2801DA1E2001E02348406B2249486357
:100D30000846406B40F29241884201DD084601E0DE
:100D40001D48406B1C4948630846806B1E2801DA29
:100D50001E2001E01848806B174988630846806BA5
:100D600040F29241884201DD084601E01248806B62
:100D7000114988630846C06B1E2801DA1E2001E075
:100D80000D48C06B0C49C8630846C06B40F29241E5
:100D9000884201DD084601E00748C06B0649C86388
:100DA000BDEC028B10BD0000A4040020A0040020B4
:100DB0005C0400209C040020F0050020A804002012
:100DC000CDCC0C40AA040020AC04002010B54FF498
:100DD000A06003F013F902F0E7F903F03DFC02F024
:100DE000B1FA0E4805F0A0F84FF4E13005F054F9DF
:100DF0004FF4E13005F0C4F905F07EFE05F016FE73
:100E000004F026FC00F0C0F800F022FA4FF49660DF
:100E100005F0E0FD04F054FC10BD0000A0860100C8
:100E200000BFFEE7C178012903D10188491C018078
:100E300001E00021018001880A290EDD0188B1F559
:100E40007A7F07DAC178012909D1817839B901217E
:100E5000017104E00221017101E00021017181783A
:100E6000C170704710B5044622460021294800F0A1
:100E700094FC2068A0F20120062847D2DFE800F0A9
:100E80000311223344452146234804F0A3FB2246A4
:100E900022492148203003F0BBFD214802F0AFFD7C
:100EA00035E021461C48001F04F094FB22461B49F4
:100EB000183919481C3003F0ABFD1948801C02F0AA
:100EC0009EFD24E021461448083804F083FB2246A6
:100ED000124930391048183003F09AFD1048001DAF
:100EE00002F08DFD13E021460B480C3804F072FB34
:100EF00022460A4948390848143003F089FD084859
:100F0000801D02F07CFD02E001E000E000BF00BFB8
:100F100010BD000000640040FC05002064070020B4
:100F200042040020F0B585B004460D4616461F4623
:100F30004FF40070009000208DF808008DF8090033
:100F400008208DF80A00380A8DF80B00F9B28DF8E8
:100F50000C10310A8DF80D10F1B28DF80E10290A1F
:100F60008DF80F10E9B28DF81010210A8DF81110CC
:100F7000E1B28DF812106946024800F096FC05B007
:100F8000F0BD00000064004000B58BB001210846B0
:100F900003F0E0FD0121480603F0ECFD09220B21DE
:100FA000354801F05BFC09220C21334801F056FC66
:100FB0004FF4C050029002208DF80C0002A92E4878
:100FC00001F004FC14208DF8040001208DF80500C8
:100FD00000208DF8060001208DF8070001A802F01E
:100FE000D1FF264800F016FA08A800F04EFC0020B9
:100FF0008DF826008DF827008DF828008DF829003F
:101000008DF82A0001208DF82B0000208DF8220099
:101010008DF8230008208DF8240003208DF825008A
:10102000ADF8200008A9154800F02DFB01208DF82F
:101030001A0000208DF81B0001208DF81C000020F4
:10104000ADF81000ADF81200ADF81400ADF81600C0
:10105000ADF8180001208DF81D0004A800F0F6F985
:1010600001220221054800F005FB01221146034838
:1010700000F000FB0BB000BD000002400064004027
:1010800000B585B00221064800F064FA30B10221B3
:10109000034800F06BF96846FFF7E4FE05B000BDB9
:1010A0000064004030B585B004460D4640F2FF10A4
:1010B000009000208DF808008DF8090008208DF8B8
:1010C0000A00200A8DF80B00E1B28DF80C10290AF5
:1010D0008DF80D10E9B28DF80E1000218DF80F106B
:1010E0008DF810108DF811108DF812106946024815
:1010F00000F0DBFB05B030BD00680040F0B585B006
:1011000004460D4616461F464FF40070009000201E
:101110008DF808008DF8090008208DF80A00200AD3
:101120008DF80B00E1B28DF80C10290A8DF80D1026
:10113000E9B28DF80E10310A8DF80F10F1B28DF86A
:101140001010390A8DF81110F9B28DF81210694695
:10115000024800F0AAFB05B0F0BD000000680040A6
:1011600010B5044622460021324800F016FB2068E4
:10117000A0F2012006285AD2DFE800F00311273838
:10118000495821462C4804F025FA22462B492A4882
:10119000203003F03DFC2A4802F031FC48E02948A9
:1011A0000068401C2749086021462348001D04F0C0
:1011B00011FA2246214918311F48243003F028FC37
:1011C0001F48801C02F01BFC32E021461A48083000
:1011D00004F000FA2246194930311748283003F04C
:1011E00017FC1748001D02F00AFC21E021461248B6
:1011F0000C3004F0EFF92246104948310E482C30EB
:1012000003F006FC0E48801D02F0F9FB10E02146B9
:101210000D4804F0DFF922460C490B48001F03F08B
:101220003BFC0748103002F0EAFB01E000E000BFA1
:1012300000BF10BD006800406C0500207C07002046
:101240003A040020FC04002080060020DC07002077
:1012500000B58BB00121022003F07CFC012188063F
:1012600003F088FC09220C21354801F0F7FA092225
:101270000D21334801F0F2FA4FF440500290022061
:101280008DF80C0002A92E4801F0A0FA40208DF83C
:10129000040001208DF8050000208DF806000120D3
:1012A0008DF8070001A802F06DFE264800F0B2F8A4
:1012B00008A800F0EAFA00208DF826008DF8270033
:1012C0008DF828008DF829008DF82A0001208DF86E
:1012D0002B0000208DF822008DF8230008208DF8C7
:1012E000240003208DF82500ADF8200008A915483A
:1012F00000F0C9F90E208DF81A0000208DF81B00AF
:1013000001208DF81C000020ADF81000ADF812008F
:10131000ADF81400ADF81600ADF8180001208DF8F6
:101320001D0004A800F092F801220221054800F0F7
:10133000A1F901221146034800F09CF90BB000BD51
:10134000000402400068004000B585B00221064854
:1013500000F000F930B10221034800F007F86846B8
:10136000FFF7FEFE05B000BD00680040B1F5007F4C
:101370003AD00FDC202928D006DC01291CD0042912
:101380001DD0082940D11DE0402921D0B1F5807F32
:101390003AD126E0B1F5004F31D006DCB1F5806FCF
:1013A00025D0B1F5006F2FD124E0B1F5803F12D0E8
:1013B000B1F5003F28D111E0154A826025E00822EE
:1013C000C26022E01022C2601FE0082202611CE01D
:1013D0001022026119E00822426016E010224260E9
:1013E00013E00422426010E0042242600DE0042277
:1013F00042600AE0002282610422426005E000228D
:1014000082610422426000E000BF00BF704700001C
:101410000101010010B504460B48844209D10121A5
:10142000480603F0B7FB00214FF0007003F0B2FB59
:1014300008E00121880603F0ADFB00214FF0806039
:1014400003F0A8FB10BD00000064004010B50021AF
:10145000837A012202FA03F13D4A126842F0010246
:101460003B4B1A603A4A1C3212688A43384B1C3391
:101470001A60027BCAB9364A0C3212688A43344B6E
:101480000C331A604288C38842EA0343304A403230
:10149000847A42F834300288838842EA03432C4A33
:1014A0004032847A02EBC4025360027B012A19D1D4
:1014B000274A0C3212680A43254B0C331A604288C3
:1014C000038842EA0343224A4032847A42F83430A5
:1014D000C288838842EA03431D4A4032847A02EB81
:1014E000C4025360C27A3AB9194A121D12688A437B
:1014F000174B1B1D1A6006E0154A121D12680A439D
:10150000134B1B1D1A60028932B9114A143212683A
:101510008A430F4B14331A600289012A06D10C4A00
:10152000143212680A430A4B14331A60427B012AB0
:1015300006D1074A1C3212680A43054B1C331A6055
:10154000034A126822F00102014B1A6010BD00002C
:101550000066004070B504460D46002660692840CC
:10156000002871D0B5F5807F5CD010DC082D35D017
:1015700006DC012D20D0022D24D0042D72D127E0CD
:10158000102D31D0202D35D0402D6BD138E0B5F560
:10159000004F60D009DCB5F5007F49D0B5F5806F0C
:1015A0004CD0B5F5006F5DD14FE0B5F5803F2DD043
:1015B000B5F5003F56D12FE0A0682D4900F090FA14
:1015C000064651E0E068032100F08AFA06464BE047
:1015D000E068082100F084FA064645E0E068102142
:1015E00000F07EFA06463FE02069032100F078FA19
:1015F000064639E02069082100F072FA064633E019
:101600002069102100F06CFA06462DE06068082180
:1016100000F066FA064627E06068102100F060FAE4
:10162000064621E0A069012100F05AFA06461BE0B7
:10163000A069022100F054FA064615E0A0690421D1
:1016400000F04EFA06460FE00FE0A069702100F0AE
:1016500047FA064608E06068042100F041FA0646B1
:1016600002E0FFE7002600BF00E00026304670BD24
:10167000010101001AB143690B43436102E0436970
:101680008B434361704730B5024600200023146845
:1016900024F002041460146844F00104146000E0B3
:1016A0005B1C546804F001041CB94FF6FF74A3429C
:1016B000F6D1546804F001040CB900206CE08C7978
:1016C000012C04D1146844F08004146003E0146811
:1016D00024F080041460CC79012C04D1146844F007
:1016E0004004146003E0146824F0400414600C7A91
:1016F000012C04D1146844F02004146003E0146841
:1017000024F0200414604C7A012C04D1146844F0B5
:101710001004146003E0146824F0100414608C7A40
:10172000012C04D1146844F00804146003E0146828
:1017300024F008041460CC7A012C04D1146844F01D
:101740000404146003E0146824F0040414608C782A
:10175000A407CD7844EA05640D7944EA05444D793F
:1017600044EA05540D886D1E2C43D461146824F09E
:1017700001041460002300E05B1C546804F00104C1
:101780001CB14FF6FF74A342F6D1546804F0010473
:101790000CB1002000E0012030BD10B500F5D87379
:1017A00003EB01131B6803F004031372137A53B99C
:1017B00000F5D87303EB01131B6840F2FF7404EAD1
:1017C0005353136009E000F5D87303EB01131B6852
:1017D0006FF0604404EAD303536000F5D87303EB61
:1017E00001131B6803F00203537200F5D87303EB77
:1017F00001135B6803F00F03937200F5D87303EBDA
:1018000001135B681B0AD37400F5D87303EB011353
:101810009B68D37200F5D87303EB01139B681C0A15
:10182000147300F5D87303EB01139B681C0C5473FD
:1018300000F5D87303EB01139B681B0E937300F53F
:10184000D87303EB0113DB68D37300F5D87303EB94
:101850000113DB681C0A147400F5D87303EB011341
:10186000DB681C0C547400F5D87303EB0113DB68C0
:101870001B0E937421B9C36843F02003C36003E0D7
:10188000036943F02003036110BD00218171C17120
:10189000017241728172C1728170C1700321017144
:1018A0000221417101210180704710B502460020DC
:1018B000936803F08063B3F1806F00D110E0936808
:1018C00003F00063B3F1006F01D1012008E09368D9
:1018D00003F08053B3F1805F01D1022000E00420C7
:1018E000042874D002F5C07303EB00131B6803F0E7
:1018F000010402F5C07303EB00131C600B7A7BB983
:101900004B7A0C8843EA445302F5C07404EB00148C
:101910002468234302F5C07404EB0014236010E034
:101920000B7A4C6843EAC4034C7A234302F5C07433
:1019300004EB00142468234302F5C07404EB001484
:1019400023608B7A03F00F038B7202F5C07303EBF5
:1019500000135B6823F00F0402F5C07303EB001360
:101960005C6002F5C07303EB00135B688C7A234361
:1019700002F5C07404EB001463608B7B1C064B7B88
:1019800044EA03440B7B44EA0323CC7A234302F565
:10199000C07404EB0014A3608B7C1C064B7C44EAEF
:1019A00003440B7C44EA0323CC7B234302F5C0743D
:1019B00004EB0014E36002F5C07303EB00131B6833
:1019C00043F0010402F5C07303EB00131C6010BD6B
:1019D0009FED301AB0EE410A9FED2E1AF0EE410A4B
:1019E0009FED2D1A20EE011ADFED2C1A81EE212A2F
:1019F0002B4890ED031AB1EE411A31EE421A2948F4
:101A000080ED001A264890ED041AF0EE081A31EE27
:101A1000611A244880ED011A9FED1F1A60EE811AA9
:101A20009FED1E2A81EE821A1D48D0ED051A31EE77
:101A3000211A1C4880ED021A90ED021ADFED1A1AE5
:101A4000B4EEE11AF1EE10FA06DD90ED021ADFEDC8
:101A5000121A31EE611A02E0124890ED021A114892
:101A600080ED021A90ED021ADFED101AB4EEE11AC1
:101A7000F1EE10FA06D290ED021ADFED071A31EE00
:101A8000211A02E0074890ED021A064880ED021A7A
:101A900070470000000000000000B4430000004652
:101AA000100900207006002000003443000034C3F9
:101AB00018B90122094B1A700FE028B1012903D18E
:101AC000FF22064B1A7008E038B119B1032901D082
:101AD000022902D10122014B1A707047990100209E
:101AE0000246002002EA01030BB1012000E00020C1
:101AF0007047000001211F48806A1E4AD26A0244D2
:101B000009B1012000E000206FF48E7358431E23BA
:101B1000A3EB8000022303FB1020002812DD1548F0
:101B2000806A144AD26A024409B1012000E0002010
:101B30006FF48E7358431E23A3EB8000022303FB34
:101B4000102010E00B48806A0A4AD26A024409B1A8
:101B5000012000E000206FF48E7358431E23A3EB96
:101B60008000C2EB4000322801DA012070470020DB
:101B7000FCE70000F005002001211F48006A1E4A12
:101B8000526A024409B1012000E000206FF48E7314
:101B900058431E23A3EB8000022303FB10200028E0
:101BA00012DD1548006A144A526A024409B1012044
:101BB00000E000206FF48E7358431E23A3EB8000D7
:101BC000022303FB102010E00B48006A0A4A526A05
:101BD000024409B1012000E000206FF48E735843E5
:101BE0001E23A3EB8000C2EB4000322801DA012063
:101BF00070470020FCE70000F005002010B500242D
:101C000010E02A4901EB440001F0E4FE274B1A3BA7
:101C100033F81420343319191A3B33F8140001F047
:101C2000E2FE641C0D2CECDB2148007801280ED16B
:101C300004240AE01D481A30005D012804D11D4922
:101C40000C70042003F0BAFC641C0D2CF2DB174866
:101C50001A3890F8350001280ED100F03DFE012819
:101C600003D1032003F0AAFC06E000F035FE0428AF
:101C700002D00C2003F0A2FC0F48C07C88B90E48AB
:101C8000807C70B90C48B0F90A00002803DD0A48CE
:101C9000B0F90A0003E00848B0F90A0040420328FE
:101CA00002DD00200249087010BD0000320400204F
:101CB0005A0400205B0400200005002010B51848DD
:101CC0000068401C16490860164801F065FEFFF7E1
:101CD00095FF00F071FF01F09FF900BF002407E0BD
:101CE00004EB4401104A02EB4100FFF79BF8641C2F
:101CF000102CF5DB04F04CFD04F0F6FC04F04AFC7B
:101D000001F072FAFFF764FE01F054FF0448007816
:101D100000F0010018B904F0DFFB04F013FC10BD63
:101D2000B4010020B0010020F4070020704700003B
:101D300010B50A490A4800F005F970B14FF0815119
:101D4000074800F013F80549054800F029F8054850
:101D500003F096F8044801F052FE10BD00802010F8
:101D60004064024050050020340400200246094B24
:101D70009A4201D2084801E00648103801F00053A9
:101D80001BB1064B0B40C36002E0044B0B40836069
:101D90007047000010640240006002407D0F7D0F1C
:101DA0000246094B9A4201D2084801E00648103821
:101DB00001F000531BB1064B0B40C36002E0044B23
:101DC0000B408360704700001064024000600240D6
:101DD0007D0F7D0F21B1026842F00102026003E035
:101DE000026822F00102026070470000016821F0E1
:101DF000010101600021016041608160C1600161F9
:101E0000212141614A49884204D13D21484A103A82
:101E100091608CE046491831884205D14FF47461D5
:101E2000434A103A916082E041493031884205D1FD
:101E30004FF474113E4A103A916078E03C494831C1
:101E4000884205D14FF07461394A103A91606EE0D2
:101E500037496031884204D13649354A103AD16059
:101E600065E033497831884204D13349304A103A29
:101E7000D1605CE02E499031884204D12F492C4A30
:101E8000103AD16053E02A49A831884205D14FF079
:101E90003D51274A103AD16049E02949884204D18E
:101EA0003D21274A083A116041E02549183188420E
:101EB00005D14FF47461224A083A116037E0204995
:101EC0003031884205D14FF474111D4A083A11602F
:101ED0002DE01B494831884205D14FF07461184A02
:101EE000083A116023E016496031884204D1114953
:101EF000134A121F11601AE011497831884204D147
:101F00000D490F4A121F116011E00D4990318842AE
:101F100004D10A490A4A121F116008E00849A83191
:101F2000884204D14FF03D51054A121F116070479D
:101F3000106002403D000020400F002000003D20C6
:101F40001064024070B50246002000240025124EA5
:101F5000B24201D2114B01E00F4B103B104E0E402C
:101F600036B11E2606EAD124166806EA040502E008
:101F7000566906F0800501F000560EB15C6800E07D
:101F80001C68084E344004EA010616B10DB1012068
:101F900000E0002070BD00001064024000600240BC
:101FA0003C0F3C0F7D0F7D0F10B501F080034BB14E
:101FB00022B1436943F08003436103E0436923F0A6
:101FC0008003436180290BD02AB1036801F01E040D
:101FD0002343036004E0036801F01E04A34303608D
:101FE00010BD000010B500220268134B1A40CC68E7
:101FF0000B6823434C6923438C692343CC692343F7
:102000000C6A23434C6A23438C6A23434C6B23435F
:102010008C6B23431A430260426922F00702D1E924
:102020000B3423431A4342610B6943604B6883605E
:102030008B68C36010BD00003F801CF04FF48060CF
:102040000549088048808880C8800320087248724B
:10205000002002490860704700050020B4010020FC
:1020600010B504461F480088401C1E4908805A2CA1
:1020700009D11D48007830B900201B494870012063
:1020800008700020C87118480078012824D116482B
:10209000C179801C4454801EC079401C1249C8710B
:1020A000A52C03D10846C079052803D10E48C07974
:1020B000052805DD00200C4948700870C8710BE048
:1020C000A52C09D10848C079052805D10120064969
:1020D000487000200870C8710348801C03F01AF98A
:1020E00010BD0000240500201B05002070470000E3
:1020F00010B5002013E09FED450A10EE101A00EB1A
:102100004012434B03EB420251609FED420A10EE36
:10211000101A00EB401203EB42021162401C04282B
:10212000E9DB3D480078A8B9FFF726FD20B93B4818
:102130000068B0F5FA7F02D9012037490870012004
:1021400003F06EF9012003F013F934480068401CD5
:10215000324908600120324908702F480078012870
:1021600053D13048007806284ED2DFE800F0030A49
:10217000121A222A00F0B6F8012801D12949087064
:1021800042E000F055F8012802D1022025490870EC
:102190003AE000F0FBF8012802D103202149087041
:1021A00032E000F09FF8012802D104201D49087098
:1021B0002AE000F03DF8012802D1052019490870F5
:1021C00022E000F0E3F801281DD100201549087035
:1021D00000BF13E09FED140A10EE101A00EB40123E
:1021E0000B4B03EB420251609FED100A10EE101AE8
:1021F00000EB401203EB42021162401C0428E9DBB1
:10220000052003F0DBF900BF00BF10BD3E0AD73D3B
:10221000300000206E43D1470B0000200C0000204E
:102220005E0800200A000020295C0F3D49828B4790
:1022300000B5002003F0C8F900202749088027498D
:102240000880012003F0ECF8002003F091F8012051
:1022500003F0E6F801283CD1002003F089F80128BA
:1022600037D16FF04A001C49088000201B490880C4
:102270001B48807801280AD11948C078012806D166
:1022800000201549088015490880012000BD144828
:10229000807868B91248C078012809D100200E4919
:1022A00008801E200D490880012003F08DF910E000
:1022B0000B48807801280CD10948C07848B9002023
:1022C000054908806FF01D0004490880012003F0D3
:1022D0007BF90020DAE700008E0100209201002047
:1022E0005408002000B5002003F06EF900202449B6
:1022F00008802449088003F093F8002003F038F8A0
:10230000002003F08DF8012838D1002003F030F8C8
:10231000012833D16FF02700194908801A48007846
:10232000012809D118484078012805D100200880EB
:1023300014490880012000BD1348007868B912488C
:102340004078012809D100200D4908801E200D4940
:102350000880012003F038F910E00B4800780128CC
:102360000CD10948407848B90020054908806FF031
:102370001D0004490880012003F026F90020DAE757
:102380008E010020920100205408002000B500209A
:1023900003F01AF900202849088028490880012004
:1023A00003F03EF8012809D102F0E2FF012805D12F
:1023B0002348007810B9012021490870204800788E
:1023C000012836D11F48006818B91F4800681D4908
:1023D00008606FF045001849088000201749088000
:1023E0001948006817490968401AB0F5967F08D95E
:1023F0001448006828B1002003F012F8002002F011
:10240000B7FF114800680F490968401AB0F5966F88
:102410000FD90C48006860B16FF0270006490880AA
:102420000020064908800749086005490870012016
:1024300000BD0020FCE700008E010020920100207A
:10244000100000202C000020B401002010B5102046
:1024500000F018F8012807D101F0D4FA102000F09C
:1024600005F8102000F008F810BD000001490860D0
:1024700070470000143C01400149086070470000AB
:10248000143C0140014600200022074B1B6803EA70
:102490000102054B14331B680B4013B10AB1012034
:1024A00000E0002070470000003C01408CB0016952
:1024B000002901DD016901E0016949424269002A00
:1024C00001DD426901E0426952420A448169002902
:1024D00001DD816901E0816949420A44C16900293D
:1024E00001DDC16901E0C1694942114401EE101AE0
:1024F000B8EEC10A0168002901DD016801E0016848
:1025000049424268002A01DD426801E042685242C5
:102510000A448168002901DD816801E0816849423F
:102520000A44C168002901DDC16801E0C16849426F
:10253000114401EE101AF8EEC10A00210891099128
:102540000A910B910491059106910791B5EEC00A8D
:10255000F1EE10FA02DDB0EE401A01E0B1EE401AE1
:10256000DFED931AB4EEE11AF1EE10FA10D29FEDFE
:10257000911A8DED081A9FED8F1A8DED091A9FEDB6
:102580008D1A8DED0A1A9FED8B1A8DED0B1A27E02F
:1025900090ED041AB8EEC11A21EE201AC1EE001A0D
:1025A000CDED081A90ED051AB8EEC11A21EE201AE9
:1025B000C1EE001ACDED091A90ED061AB8EEC11A57
:1025C00021EE201AC1EE001ACDED0A1A90ED071A7D
:1025D000B8EEC11A21EE201AC1EE001ACDED0B1A89
:1025E000DDED081A90ED001AB8EEC11A31EEC11AED
:1025F0008DED041ADDED091A90ED011AB8EEC11A3D
:1026000031EEC11A8DED051ADDED0A1A90ED021AB0
:10261000B8EEC11A31EEC11A8DED061ADDED0B1AB6
:1026200090ED031AB8EEC11A31EEC11A8DED071AFA
:10263000614991ED001ADDED041A9FED602A01EE6B
:10264000821A81ED001A91ED001ADDED041A9FED5A
:102650005B2A01EE821A81ED001A91ED001ADDED80
:10266000041A9FED562A01EE821A81ED001A91EDAF
:10267000001ADDED041A9FED512A01EE821A81ED58
:10268000001A002132E04C4A02EB810292ED001A5E
:10269000DFED4B1AB4EEE11AF1EE10FA02DD9FED18
:1026A000481A04E0444A02EB810292ED001A424AC1
:1026B00002EB810282ED001A3F4A02EB810292EDA9
:1026C000001ADFED401AB4EEE11AF1EE10FA02D270
:1026D0009FED3C1A04E0384A02EB810292ED001AA9
:1026E000354A02EB810282ED001A491C0429CADB3B
:1026F000314991ED001ADDED041AB0EE082A01EE21
:10270000821ABDEEC11A8DED001A91ED011ADDEDB0
:10271000051AB0EE082A01EE821ABDEEC11A8DED3F
:10272000011A91ED021ADDED061AB0EE082A01EE4B
:10273000821ABDEEC11A8DED021A91ED031ADDED7C
:10274000071AB0EE082A01EE821ABDEEC11A8DED0D
:10275000031A002117E05DF82120B2F57A6F02DD3F
:102760004FF47A6201E05DF821204DF821205DF8F8
:10277000212012F57A6F01DA134A01E05DF8212079
:102780004DF82120491C0429E5DB016C009A114415
:102790000164416C019A11444164816C029A1144B4
:1027A0008164C16C039A1144C1640CB0704700008D
:1027B000CDCCCC3D00000000BC0500200AD7233C56
:1027C00000007A4400007AC460F0FFFFF0B50A46CA
:1027D00000210023002400BF3DE0012505FA01F39C
:1027E000156805EA03049C4234D105684F000326AE
:1027F000BE40B543056015794E00B54006683543C7
:1028000005601579012D02D01579022D16D1856844
:102810004F000326BE40B543856055794E00B54054
:10282000866835438560456801268E40B54345601E
:10283000456896798E40B6B235434560C5684F000D
:102840000326BE40B543C560D5794E00B540C66885
:102850003543C560491C1029BFD3F0BDF0B5002336
:1028600000244D07ED0E02FA05F3CE1000F120050D
:1028700055F826504E07F70E0F26BE40B543CF1031
:1028800000F1200646F82750CE1000F1200555F83B
:10289000265045EA0304CE1000F1200545F82640F5
:1028A000F0BD0246002013690B400BB1012000E08F
:1028B0000020704741837047018370474FF6FF71D6
:1028C00001600021017141718171C17170474269DC
:1028D0004A4042617047000001480078704700009C
:1028E000A801002000BFFEE710B5044600F0B0F8D4
:1028F0002CB14FF400710D48FFF7DEFF04E04FF4F8
:1029000000710A48FFF7D6FF4FF480710748FFF7C0
:10291000D3FF012000F00CF84FF480710348FFF75B
:10292000C9FF012000F004F810BD000000040240BF
:1029300010B5002106E0062200BF1300A2F101023B
:10294000FBD1491C8142F6D310BD000070B50024B4
:1029500000F068F800251BE04FF480711148FFF784
:10296000A9FF0120FFF7E4FF4FF480710D48FFF746
:10297000A3FF6006040E4FF400710A48FFF791FFB1
:1029800008B1601CC4B20120FFF7D2FF681CC5B2B9
:10299000082DE1DB4FF480710248FFF78BFF2046E2
:1029A00070BD0000000402402DE9F04106460F46CC
:1029B0001446984600F060F8304600F0CBF800F07E
:1029C0009BF8FF2801D1BDE8F081384600F0C2F83D
:1029D00000F092F8FF2800D1F5E700F04DF8711CE7
:1029E000C8B200F0B7F800F087F8FF2800D1EAE796
:1029F000002508E0FFF7AAFF20700020FFF774FF12
:102A0000641C681CC5B2A8F10100A842F2DCFFF703
:102A10009DFF20700120FFF767FF00F04DF80020B8
:102A2000D1E700001CB54FF40070009000208DF835
:102A300004008DF806008DF8070002208DF80500CF
:102A400069460248FFF7C2FE1CBD000000040240B8
:102A50001CB54FF40070009001208DF804008DF833
:102A6000060003208DF8050069460248FFF7AEFE18
:102A70001CBD00000004024010B5FFF7E9FF4FF451
:102A800000710C48FFF718FF4FF480710948FFF7F9
:102A900013FF0120FFF74CFF4FF400710548FFF7CB
:102AA00009FF0120FFF744FF4FF480710148FFF751
:102AB00001FF10BD0004024010B5FFF7C9FF4FF43D
:102AC00080710C48FFF7F6FE4FF400710948FFF7DC
:102AD000F1FE0120FFF72CFF4FF480710548FFF74E
:102AE000EBFE4FF400710348FFF7E6FE0120FFF70D
:102AF0001FFF10BD0004024010B54FF47A744FF46C
:102B000000711348FFF7D8FEFFF78CFF0120FFF795
:102B10000FFF4FF480710E48FFF7CEFE0120FFF744
:102B200007FF07E0601E80B2040003D0FFF7C4FF78
:102B3000FF2010BD4FF400710548FFF7B2FE0028DA
:102B4000F0D14FF480710248FFF7B4FE0020F0E7A7
:102B50000004024070B50446FFF77AFF4FF480711D
:102B60001448FFF7A7FE002521E004F0800028B1FB
:102B70004FF400710F48FFF79FFE04E04FF400711F
:102B80000C48FFF797FE6006040E0120FFF7D0FE09
:102B90004FF480710748FFF78FFE0120FFF7C8FE52
:102BA0004FF480710348FFF785FE681CC5B2082DFD
:102BB000DBDB70BD000402402B4890ED030AB5EE4C
:102BC000C00AF1EE10FA02DD90ED030A04E0264897
:102BD00090ED030AB1EE400ADFED240AB4EEE00AFC
:102BE000F1EE10FA3AD2204890ED040AB5EEC00A90
:102BF000F1EE10FA02DD90ED040A04E01A4890EDBF
:102C0000040AB1EE400ADFED190AB4EEE00AF1EE73
:102C100010FA23D2144890ED050AB5EEC00AF1EE81
:102C200010FA02DD90ED050A04E00F4890ED050A68
:102C3000B1EE400ADFED0D0AB4EEE00AF1EE10FA53
:102C40000CD20B480088401C0949088008460088BF
:102C5000C82808DD01200749087004E00020054964
:102C60000870034908807047100900200AD7233CE8
:102C70005E0400205C04002010B5044621461A487A
:102C80000078FEF715FF1948047034B1012C0DD0FF
:102C9000022C14D0032C24D11AE0154800781549D1
:102CA000087213484178134841721AE0104880783E
:102CB000104908720E48C1780E48417211E00C4864
:102CC00000790C4908720A4841790A48417208E0C3
:102CD00007488079074908720548C179054841725B
:102CE00000BF00BF10BD0000F4010020F80100206B
:102CF000987300085E08002010B56A48007840B953
:102D000069480078012804D168490870FFF7B4FFCA
:102D10000CE064480078012808D16348007828B99D
:102D20000020624908700120FFF7A6FF6048007884
:102D300048B960480078012805D15C490870002036
:102D4000FFF79AFF0BE05A480078012807D159484D
:102D5000007820B9002055490870FFF78DFF5648CC
:102D6000007809280AD0FFF7B7FD092806D101200D
:102D70004E4908700320FFF77FFF0DE04E480078B2
:102D8000092809D1FFF7A8FD092805D000204749E7
:102D900008700220FFF770FFFFF79EFD07280BD099
:102DA000FFF79AFD082807D0FFF796FD0A2803D001
:102DB000FFF792FD0B2805D101203C490870022045
:102DC000FFF75AFF3C480078052809D0FFF784FD3B
:102DD000052805D10020354908700220FFF74CFF77
:102DE0003648007810BB364890F85000012821D1B1
:102DF0002E48007808B9012000E000202B49087017
:102E0000FFF76AFD092803D10320FFF735FF11E022
:102E100028480078012803D10020FFF72DFF09E0A2
:102E200021480078012802D1FFF726FF02E00220A6
:102E3000FFF722FFFFF750FD05280FD1214800784A
:102E400060B91F4890F85C00012807D11E4800783F
:102E500008B9012000E000201B49087013480078E1
:102E600040F20D2110FB01F040F2A461A1EB400003
:102E700016490860124890F8500010490870104830
:102E800090F85C000F490870074800780549087001
:102E90000848007806490870FFF71EFD06490870CB
:102EA00010BD0000FB01002094040020F40100206C
:102EB000FC01002060040020FD010020F901002039
:102EC000F4070020FA0100205E080020400C0040BA
:102ED00010B5FEF751FE20B9FEF70CFE08B900242C
:102EE00009E0FEF749FE012804D1FEF703FE08B908
:102EF000012400E00024204610BD0000434890F962
:102F00000000401CC0B14248807C00F001004149F3
:102F100088703F48807CC0F340013E4801723C48C5
:102F2000807CC0F380013B4881733948807CC0F3CA
:102F3000C0013848017517E03548807CC0F3400077
:102F4000344988703248807C00F0010131480172B8
:102F50002F48807CC0F3C0012E4881732C48807CB0
:102F6000C0F380012B4801752948807CC0F3001113
:102F7000284881762648807CC0F34011254880F897
:102F800020102348807CC0F38011224880F826104E
:102F90001F48807CC1091F4880F82C101C48C07C49
:102FA00000F001011B4880F832101948C07CC0F3C2
:102FB0004001184880F838101548C07CC0F38001E3
:102FC000144880F83E101248C07CC0F3C00111487C
:102FD00080F844100E48C07CC0F300110D4880F802
:102FE0004A100B48C07CC0F340110A4880F85010CA
:102FF0000748C07CC0F38011064880F8561004488A
:10300000C07CC109034880F85C107047990100201A
:1030100000050020F407002010B5104890F82000AB
:1030200001281AD10D48807E012816D10B4890F84E
:10303000440090B9094890F84A0070B9074890F8E0
:103040005000012809D1054890F85600012804D104
:1030500000200349086000F0DBFF10BDF4070020EA
:10306000B401002010B5424800780A2830DA404800
:10307000007800282CDD3F4800684FF41661B0FB53
:10308000F1F201FB12003A4909784900C1EB011144
:1030900001EB8101B0EB410F27D8364800684FF4AF
:1030A0001661B0FBF1F201FB120020B90221324897
:1030B000FFF702FC19E02F4800689621B0FBF1F2FF
:1030C00001FB120088B902212B48FFF700FC0CE03D
:1030D000274800780A2804DB02212748FFF7EAFB8B
:1030E00003E002212448FFF7E7FB244800780A2880
:1030F00030DA2248007800282CDD1E4800684FF4A2
:103100001661B0FBF1F201FB12001C49097849007D
:10311000C1EB011101EB8101B0EB410F27D815483C
:1031200000684FF41661B0FBF1F201FB120020B908
:1031300001211148FFF7C0FB19E00E4800689621F5
:10314000B0FBF1F201FB120088B901210A48FFF738
:10315000BEFB0CE0094800780A2804DB0121064880
:10316000FFF7A8FB03E001210348FFF7A5FB10BD13
:10317000F2010020B401002000080240F301002009
:103180000A2801DD0A2200E00246054B1A700A29CE
:1031900001DD0A2200E00A46024B1A707047000067
:1031A000F2010020F30100201CB50121042001F0F0
:1031B000D1FC0320009001208DF8040000208DF840
:1031C000060003208DF8050069460648FFF7FEFA61
:1031D00002210448FFF770FB01210248FFF76CFB56
:1031E0001CBD00000008024010B55448006896213C
:1031F000B0FBF1F201FB1200002871D1FFF76CFB6C
:103200000D280CD2DFE800F00C07116D3416721B8C
:1032100020252A2F90000A210846FFF7B1FF88E0F9
:1032200009210846FFF7ACFF83E009210846FFF7B4
:10323000A7FF7EE000210120FFF7A2FF79E0002137
:103240000120FFF79DFF74E000210120FFF798FFA8
:103250006FE000210120FFF793FF6AE000210120C9
:10326000FFF78EFF65E000210120FFF789FF60E096
:10327000334800880C2804D10A210320FFF780FF7F
:103280002DE02F48008804280BD02D480088052801
:1032900007D02B480088062803D029480088072833
:1032A00004D10A210220FFF76BFF18E024480088B0
:1032B00008280BD022480088092807D02048008819
:1032C0000A2803D01E4800880B2804D10A210120B7
:1032D000FFF756FF03E00A210620FFF751FF28E021
:1032E0002AE001210846FFF74BFF22E0134800685F
:1032F0004FF41661B0FBF1F201FB120020B90A2174
:103300000020FFF73DFF0EE00C48006800F59660D6
:103310004FF41661B0FBF1F201FB120018B9002165
:103320000A20FFF72DFF04E001210846FFF728FFE0
:1033300000BF00BFFFF796FE10BD0000B4010020E3
:103340005B0400201CB50121042001F003FC2020B7
:10335000009001208DF8040000208DF80600032065
:103360008DF8050069460448FFF730FA202102482D
:10337000FFF7A0FA1CBD0000000802406348007877
:1033800030B1012838D0022865D0032833D1B8E005
:103390009FED5F0A10EE100A5E4948609FED5C0ADF
:1033A00010EE100AC1F846009FED590A10EE100AFF
:1033B000C1F888009FED560A10EE100AC1F8CA0045
:1033C00046205549086348638863C8630846006A15
:1033D0001E2810DD0846406A1E280CDD0846806A5B
:1033E0001E2808DD0846C06A1E2804DD0120474962
:1033F00008704A49087086E09FED490A10EE100AED
:10340000444948609FED460A10EE100AC1F8460094
:103410009FED430A10EE100AC1F888009FED400AA4
:1034200010EE100AC1F8CA003E483B4908634863E1
:103430008863C86308460068496808443649896853
:1034400008443549C968084410F1190F02DA02200E
:103450002E49087057E0304800682F4949680844F1
:103460002D49896808442C49C968084400280BDDA7
:103470002948006828494968084427498968084458
:103480002549C96808440BE0234800682249496877
:1034900008442149896808441F49C96808444042D2
:1034A0000A282DDA00202049C88200211E48C18543
:1034B000A0F84610A0F85E10002017490863486382
:1034C0008863C8639FED190A10EE100A114948601D
:1034D0009FED160A10EE100AC1F846009FED130A80
:1034E00010EE100AC1F888009FED100A10EE100AC5
:1034F000C1F8CA0000200949087003200349087078
:1035000001E00120704700BF0020FBE7100400200D
:10351000CDCCCC3D06030020F00500201104002096
:1035200000000000F0D8FFFF1C070020CDCC4C3D70
:10353000DFED0D0AB4EEE00AF1EE10FA04DDDFED86
:103540000A0AC0ED000A0DE0DFED080AB4EEE00A59
:10355000F1EE10FA04D2DFED050AC0ED000A01E039
:1035600080ED000A7047000000409C450080D4C4F4
:1035700010B52DED048BFFF7AFF9052807D0FFF745
:10358000ABF90A2803D0FFF7A7F90B2872D1FA4844
:10359000007A01286FD1F94800680A21B0FBF1F2E6
:1035A00001FB12000028F5D1F348407A012804D02D
:1035B000022861D003285CD1C7E0EF49C988A1F592
:1035C000806101EB4101880003F01BFD9FEDEC0BD6
:1035D00053EC102B03F08EFB03F0E4FC00B2EA493D
:1035E000096B0844E8490863E349C988A1F580618B
:1035F00001EB4101880003F004FD9FEDE10B53EC6A
:10360000102B03F077FB03F0CDFC00B2DE49496BD1
:103610000844DD494863D849C988A1F5806101EBB8
:103620004101880003F0EDFC9FEDD50B53EC102B0E
:1036300003F060FB03F0B6FC00B2D349896B084489
:10364000D1498863CC49C988A1F5806101EB41016A
:10365000880003F0D6FC9FEDCA0B53EC102B03F04F
:1036600049FB03F09FFC00B2C749C96B0844C64937
:10367000C8636BE079E06AE0BF49C988A1F5806161
:10368000C1EBC10003F0BDFC41EC190B9FEDBC0B7D
:1036900053EC102B03F02EFB41EC180B03F082FCD3
:1036A00000B2B949096B0844B7490863B249C988EF
:1036B000A1F58061C1EBC10003F0A3FC41EC190B43
:1036C0009FEDAF0B53EC102B03F014FB41EC180BE8
:1036D00003F068FC00B2AC49496B0844AA4948634E
:1036E000A549C988A1F58061C1EBC10003F089FC3F
:1036F00041EC190B9FEDA20B53EC102B03F0FAFADF
:1037000041EC180B03F04EFC00B29F49896B081A7C
:103710009D4988639849C988A1F58061C1EBC100C2
:1037200003F06FFC41EC190B9FED950B53EC102B44
:1037300003F0E0FA41EC180B03F034FC00B29249BC
:10374000C96B081A9049C86300E000BF00BF8F48EA
:1037500090F84400012801D101F062FE8B4890F8F6
:103760004A00012801D101F003FEFFF7B5F8022855
:103770005FD0FFF7B1F800285BD0FFF7ADF8012864
:1037800057D08148006B1E2801DA1E2001E07E48D8
:10379000006B7D4908630846006B40F29241884205
:1037A00001DD084601E07848006B77490863084668
:1037B000406B1E2801DA1E2001E07348406B7249FD
:1037C00048630846406B40F29241884201DD08465A
:1037D00001E06D48406B6C4948630846806B1E28C9
:1037E00001DA1E2001E06848806B6749886308465B
:1037F000806B40F29241884201DD084601E0624858
:10380000806B614988630846C06B1E2801DA1E2060
:1038100001E05D48C06B5C49C8630846C06B40F27C
:103820009241884201DD084601E05748C06B564985
:10383000C863554890ED081AB8EEC11AF0EE410A77
:1038400090ED0C1AB8EEC11AB0EE410A504800F0E3
:10385000EBFDBDEEC00A4C4880ED040A90ED091A5C
:10386000B8EEC11AF0EE410A90ED0D1AB8EEC11A89
:10387000B0EE410A4648423000F0D6FDBDEEC00A27
:10388000414880ED050A90ED0A1AB8EEC11AF0EE33
:10389000410A90ED0E1AB8EEC11AB0EE410A3C484A
:1038A000843000F0C1FDBDEEC00A374880ED060A45
:1038B00090ED0B1AB8EEC11AF0EE410A90ED0F1A16
:1038C000B8EEC11AB0EE410A3148C63000F0ACFD86
:1038D000BDEEC00A2C4880ED070A90ED001AB8EE44
:1038E000C11AF0EE410A90ED041AB8EEC11AB0EE1A
:1038F000410A284800F098FD234880ED100A90ED19
:10390000011AB8EEC11AF0EE410A90ED051AB8EEB0
:10391000C11AB0EE410A1F48423000F085FD1A4836
:1039200080ED110A90ED021AB8EEC11AF0EE410ACC
:1039300090ED061AB8EEC11AB0EE410A154884306F
:1039400000F072FD104880ED120A90ED031AB8EEF7
:10395000C11AF0EE410A90ED071AB8EEC11AB0EEA6
:10396000410A0C48C63000F05FFD074880ED130A9D
:10397000BDEC048B10BD000000050020B401002048
:103980000000000000A08440F0050020F4070020A3
:10399000FE0100200603002010B50446207801280F
:1039A00015D10B480088401C09490880012001F00E
:1039B00037FD012804D0012001F0DAFC012806D1EE
:1039C0000020207001F02CFD002001F0D1FC10BD82
:1039D000E401002001884FF6FE72914202DA01886C
:1039E000491C01807047034602EB8200984202DACC
:1039F0000120087001E0002008700878704700215D
:103A0000018070471FB50E236A463B21D020FEF788
:103A1000CBFFFF2801D104B010BD9DF801009DF837
:103A2000001040EA012000B2584908809DF80300C8
:103A30009DF8021040EA012000B2544948809DF8E8
:103A400005009DF8041040EA012000B24F4988802B
:103A50009DF807009DF8061040EA012000B24B498E
:103A6000C8809DF809009DF8081040EA012000B2C6
:103A7000464908819DF80B009DF80A1040EA012094
:103A800000B2424948819DF80D009DF80C1040EAB3
:103A9000012000B23D4988810846B0F9000000EEDF
:103AA000100AB8EEC00AB1EE400ADFED390A80EE26
:103AB000201A384880ED001A0846B0F9020000EEDE
:103AC000100AB8EEC00AB1EE400ADFED310A80EE0E
:103AD000201A304880ED011A0846B0F9040000EEC3
:103AE000100AB8EEC00ADFED2A0A80EE201A294833
:103AF00080ED021A0846B0F9060000EE100AB8EE92
:103B0000C00A9FED251AC0EE010A9FED240A30EE8F
:103B1000800A204880ED030A0846B0F908002049D1
:103B20000968401A00EE100AB8EEC00ADFED1D0A5F
:103B300080EE201A174880ED041A1448B0F90A00E4
:103B400019490968401A00EE100AB8EEC00AB1EE31
:103B5000400ADFED140A80EE201A0E4880ED051AA7
:103B60000A48B0F90C0011490968401A00EE100A21
:103B7000B8EEC00AB1EE400ADFED0A0A80EE201A64
:103B8000044880ED061A002045E70000B406002036
:103B900000000046C40600200000AA43B81E1242DE
:103BA000B004002000008342B4040020B8040020C8
:103BB00000BFFEE710B5FEF78FFE0D287AD2DFE8D2
:103BC00000F018072979A87AB9DBFEFDFCFBCA00D2
:103BD00000231A4619461846FDF790FA00231A46A4
:103BE00019461846FDF79EF900210846FDF75AFAD6
:103BF000BEE100231A4619461846FDF77FFA002356
:103C00001A4619461846FDF78DF900210846FDF7BA
:103C100049FAADE1D748D0ED100AB0EE600AD648B7
:103C2000FFF786FCD348D0ED110AB0EE600AD24807
:103C3000001DFFF77DFCCF48D0ED120AB0EE600A00
:103C4000CD480830FFF774FCCA48D0ED130AB0EE37
:103C5000600AC9480C30FFF76BFC00231A4619466E
:103C60001846FDF74BFAC44C94ED030ABDEEC00AAA
:103C700010EE104A23B2C04C94ED020ABDEEC00A09
:103C800010EE104A22B2BC4C94ED010ABDEEC00AFF
:103C900010EE104A21B2B84C94ED000ABDEEC00AF5
:103CA00010EE104A20B2FDF73DF900210846FDF75D
:103CB000F9F95DE14BE1B14CE36CA26C616C206CF5
:103CC000FDF71CFAAB4C94ED130ABDEEC00A10EEE2
:103CD000104A23B2A74C94ED120ABDEEC00A10EEB2
:103CE000104A22B2A34C94ED110ABDEEC00A10EEA8
:103CF000104A21B29F4C94ED100ABDEEC00A10EE9E
:103D0000104A20B2FDF70EF900210846FDF7CAF966
:103D10002EE100231A4619461846FDF7EFF9002355
:103D20001A4619461846FDF7FDF800210846FDF72A
:103D3000B9F91DE100231A4619461846FDF7DEF9C8
:103D400000231A4619461846FDF7ECF800210846EC
:103D5000FDF7A8F90CE100231A4619461846FDF7AD
:103D6000CDF900231A4619461846FDF7DBF8002165
:103D70000846FDF797F9FBE0804CE36CA26C616CA0
:103D8000206CFDF7BBF97B4C94ED130ABDEEC00A25
:103D900010EE104A23B2774C94ED120ABDEEC00A21
:103DA00010EE104A22B2734C94ED110ABDEEC00A17
:103DB00010EE104A21B203E09BE06CE03DE00EE023
:103DC0006C4C94ED100ABDEEC00A10EE104A20B201
:103DD000FDF7A8F800210846FDF764F9C8E0674C34
:103DE000E36CA26C616C206CFDF788F9614C94ED7A
:103DF000130ABDEEC00A10EE104A23B25D4C94EDDA
:103E0000120ABDEEC00A10EE104A22B2594C94EDCF
:103E1000110ABDEEC00A10EE104A21B2554C94EDC5
:103E2000100ABDEEC00A10EE104A20B2FDF77AF873
:103E300000210846FDF736F99AE000210846FDF713
:103E400031F94E4CE36CA26C616C206CFDF756F9B5
:103E5000484C94ED130ABDEEC00A10EE104A23B28E
:103E6000444C94ED120ABDEEC00A10EE104A22B284
:103E7000404C94ED110ABDEEC00A10EE104A21B27A
:103E80003C4C94ED100ABDEEC00A10EE104A20B270
:103E9000FDF748F86CE000210846FDF703F9374CC0
:103EA000E36CA26C616C206CFDF728F9314C94ED49
:103EB000130ABDEEC00A10EE104A23B22D4C94ED49
:103EC000120ABDEEC00A10EE104A22B2294C94ED3F
:103ED000110ABDEEC00A10EE104A21B2254C94ED35
:103EE000100ABDEEC00A10EE104A20B2FDF71AF813
:103EF0003EE000210846FDF7D5F8204CE36CA26CAB
:103F0000616C206CFDF7FAF81A4C94ED130ABDEEC3
:103F1000C00A10EE104A23B2164C94ED120ABDEE00
:103F2000C00A10EE104A22B2124C94ED110ABDEEF6
:103F3000C00A10EE104A21B20E4C94ED100ABDEEEC
:103F4000C00A10EE104A20B2FCF7ECFF10E000238C
:103F50001A4619461846FDF7D1F800231A461946A5
:103F60001846FCF7DFFF00210846FDF79BF800BF6D
:103F700000BF10BDF0050020CC0500206C0500201E
:103F80007047000070B5002100230F22C4781CB3D5
:103F9000174C246804F4E064C4F5E064C4F307211A
:103FA000C1F10404E3B20A4144789C40E1B2847850
:103FB000144021430C07210E0E4C057861550478FE
:103FC00004F01F050124AC4005786D11AD0005F12A
:103FD000E025C5F8004109E0047804F01F0501243C
:103FE000AC40054D0678761145F8264070BD0000BE
:103FF0000CED00E000E400E080E100E00249014354
:10400000024A1160704700000000FA050CED00E064
:10401000BFF34F8F0648006800F4E060054908438D
:10402000001D03490860BFF34F8F00BFFEE700008B
:104030000CED00E00000FA0570B506460024351DC1
:10404000A3E0285DC02840D012DCA52829D008DCD8
:1040500090281ED0A02821D0A12820D0A22877D136
:104060001EE0B02826D0B12825D0B228F7D123E011
:10407000D1287BD006DCC12828D0C22827D0D02860
:10408000EDD12DE0D92865D0E02879D0F02879D17C
:1040900074E0687840490870A41C75E000BF00BF58
:1040A00000BF29193D4851F8012F0260898881809D
:1040B000E41D69E000BF00BF2919394851F8012FFC
:1040C000026089888180E41D5EE000BF00BF29197D
:1040D000344851F8012F026089888180E41D53E043
:1040E000601C295CA01C285C01EB002000B200EEE3
:1040F000100AB8EEC00ADFED2C0A80EE201A2B4819
:1041000080ED001AE01C295C201D285C01EB0020DA
:1041100000B200EE100AB8EEC00ADFED230A80EE0E
:10412000201A224880ED011A601D295CA01D285C20
:1041300001EB002000B200EE100AB8EEC00AF2EE69
:10414000040A80EE201A194880ED021AE41D1BE0D3
:1041500018E00BE02919154851F8012F02604A6850
:104160004260896881600D340EE009E02819411C25
:1041700010220F48FCF799F8113405E0641D03E0A4
:10418000641D01E0641C00BF00BFB6F88400A042BB
:104190003FF757AF70BD000038050020260500200E
:1041A0002C050020320500200000C842F408002041
:1041B0000009002010B5FDF7DFFC10B9FDF79AFCEF
:1041C00038B1FDF7D9FC012805D1FDF793FC012892
:1041D00001D1002409E0FDF7CFFC012804D1FDF74F
:1041E00089FC08B9012400E00024204610BD00002D
:1041F0000021F7EE000AB0EE600AD0E904239A42EB
:1042000001DD026900E04269114682698A4201DAF1
:104210000A4600E082691146C2698A4201DA0A460A
:1042200000E0C269114600EE901AF8EEE00A9FED38
:104230001D1AF4EEC10AF1EE10FA31DD00EE901A0B
:10424000F8EEE00A9FED171AC1EE201AB0EE610AEF
:10425000D0ED040AF8EEE00A60EE800AFDEEE00A16
:10426000C0ED040AD0ED050AF8EEE00A60EE800A1F
:10427000FDEEE00AC0ED050AD0ED060AF8EEE00A10
:1042800060EE800AFDEEE00AC0ED060AD0ED070AF6
:10429000F8EEE00A60EE800AFDEEE00AC0ED070AE3
:1042A0007047000000D0044670B506460D4614461F
:1042B000FEF712FB05280BD0FEF70EFB092807D0EE
:1042C000FEF70AFB0A2803D0FEF706FB0B2876D17F
:1042D0005048007800F00100002871D14E488078E5
:1042E000D0B14E48B0F90000B0F5257F0BDA4B484D
:1042F000B0F90000002806DB48480088801C00B2A6
:104300004649088029E04548B0F90000002824DA31
:1043100000204249088020E03F48007AD0B13F4861
:10432000B0F9000010F5257F0BDD3C48B0F9000026
:10433000002806DC39480088801E00B23749088012
:104340000BE03648B0F90000002806DD00203349B4
:10435000088002E00020314908802F48007DC8B164
:104360002F48B0F90000B0F5257F0BDA2C48B0F9E2
:104370000000002806DB2A480088801C00B228497B
:1043800008802AE0B5F90000002826DA0020244938
:10439000088022E02048807BE0B12148B0F900008D
:1043A00010F5257F0DDD1E48B0F90000002808DC5F
:1043B0001B480088801E00B2194908800DE027E0E4
:1043C00013E01748B0F90000002806DD002014496A
:1043D000088002E00020124908801048B0F900006F
:1043E00030800F48B0F9000028800E484089C00096
:1043F00000B22080084890F8260010B14FF6D46033
:104400002080054890F82C0010B14FF49670208061
:1044100070BD0000B4010020F4070020A2010020BC
:10442000A401002000050020B0EE401A416900EE12
:10443000101AB8EEC00AB4EEC10AF1EE10FA06D2B4
:10444000416900EE101AB8EEC00AB0EE401A0169D8
:1044500000EE101AB8EEC00AB4EEC10AF1EE10FA7E
:1044600006DD016900EE101AB8EEC00AB0EE401A7F
:10447000816A416231EE600A10EE101A816271EEBB
:10448000601AC16800EE101AF4EEC01AF1EE10FACC
:1044900002DDC168816213E071EE601AC16800EE4E
:1044A000101AB1EE400AF4EEC01AF1EE10FA07D27B
:1044B000C16800EE101AB1EE400A10EE101A8162C7
:1044C00031EE600AB5EEC00AF1EE10FA02DD31EE0F
:1044D000600A03E031EE600AB1EE400A816B01EE42
:1044E000901AF8EEE11AB4EEE10AF1EE10FA04D8EF
:1044F0009FED570A10EE101A8162816A00EE101AC1
:10450000C16A01EE901A9FED532A02EE210A10EEC5
:10451000101AC162816A00EE101A416A01EE901A07
:1045200070EE611A816800EE101A21EE800A10EE1A
:10453000101A0163C16A00EE101A016A01EE901AA6
:10454000B4EEE10AF1EE10FA01DD016AC162C16A5E
:1045500000EE101A016A01EE901AF1EE611AB4EE43
:10456000E10AF1EE10FA07D2016A00EE101AB1EE7C
:10457000400A10EE101AC162816A00EE101A01683A
:1045800001EE901A20EE210ABDEEC00A10EE101ABC
:1045900009B28187016B00EE101ABDEEC00A10EE61
:1045A000101A09B2C187C16A00EE101A416801EE03
:1045B000901A20EE210ABDEEC00A10EE101A09B2C0
:1045C000A0F84010816A00EE101A016801EE901AFE
:1045D00020EE212AC16A01EE901A416800EE101AFD
:1045E00001EE802A016B00EE101A32EE000A10EE86
:1045F000101A4163416B00EE101AC16901EE901A66
:10460000F8EEE11AB4EEE10AF1EE10FA07DDC16945
:1046100000EE101AB8EEC00A10EE101A4163416B9A
:1046200000EE101A816901EE901AF8EEE11AB4EE6C
:10463000E10AF1EE10FA07D2816900EE101AB8EE25
:10464000C00A10EE101A4163416B00EE101A704759
:104650000000000077BE7F3F00B58BB00121022033
:1046600000F078FA0121084600F074FA01210220D6
:1046700000F080FA0121082000F07CFA0320099064
:1046800002208DF8280003208DF8290009A96A4826
:10469000FEF79CF8CF20099002208DF82800032017
:1046A0008DF8290009A96548FEF790F8022200213B
:1046B0006148FEF7D3F8022201215F48FEF7CEF8E9
:1046C000022206215D48FEF7C9F8022207215B4855
:1046D000FEF7C4F8022200215848FEF7BFF8022274
:1046E00001215648FEF7BAF8022211465348FEF758
:1046F000B5F8022203215148FEF7B0F85320ADF877
:1047000018000020ADF81A0044F620600790002041
:10471000ADF8200006A94A4801F068F95320ADF829
:1047200018000020ADF81A0044F620600790002021
:10473000ADF8200006A9434801F058F97020ADF803
:1047400004000120ADF806000020ADF808004FF489
:104750007A7003900220ADF810000020ADF812002E
:10476000ADF814004FF48070ADF8160001A934487C
:1047700000F0F0FF01A9324801F034F801A93048F7
:1047800001F090F801A92E4801F0E6F84FF47A7094
:10479000039001A92B4800F0DDFF01A9294801F091
:1047A00021F801A9274801F07DF801A9254801F069
:1047B000D3F80821224801F00BF80821204801F025
:1047C00063F808211E4801F0BDF808211C4801F0DB
:1047D000FFF808211B4800F0FBFF0821194801F0F1
:1047E00053F80821174801F0ADF80821154801F0E9
:1047F000EFF80121124800F075FF0121114800F087
:1048000071FF01210E4800F07FFF01210D4800F0EB
:104810007BFF4FF4FA700A493431086040F6C41047
:10482000091D08604FF4C860091D086040F29650E9
:10483000091D08600BB000BD0004024000000240EA
:1048400000040040000C004010B5044661480078A8
:1048500007287DD2DFE800F0040A333D4D536300A2
:104860005A2C02D101205B490870B0E05A48006818
:1048700080F888405848006890F88800A52804D03F
:10488000A62806D0A72818D10FE0022051490870A9
:1048900013E05248006820B14F4800684F4909684A
:1048A000884700204B49087007E000204A49096802
:1048B000086006204749087000BF00BF87E04648EF
:1048C0000068A0F88440464884700320414908707D
:1048D0007DE041480068B0F8840040EA04203E4989
:1048E0000968A1F884003E48C47004203949087062
:1048F0006DE03C48048005203649087067E039487F
:10490000008840EA042037490880002032490968BD
:1049100008603549088006202E49087057E02E4867
:10492000006801682C4800680068401C2A4A126828
:10493000106029480068001D44542748006890F81A
:104940008800A72813D1244800680068082800E0E0
:1049500039E00CD3082020490968A1F884001E48DA
:1049600000681E490968884700201A4908701A48DB
:104970000068006818490968B1F88410884221D39A
:104980001548006890F88800A5281BD10422144916
:10499000154802F001F81048006802680E480168E6
:1049A000091D114801F0F8FF0F4800880D490988DA
:1049B000884204D1084800680849096888470020EF
:1049C0000449087003E000200249087000BF00BFDE
:1049D000002010BD48050020400500203C050020B7
:1049E00049050020440500204605002070B5044616
:1049F0000D46044805608C212046FBF79BFC0248CD
:104A0000046070BD3C050020400500207047000098
:104A100070B52DED088B06460C461546287BE97AC5
:104A200040EA012000B22082204600F077F8B4F975
:104A3000100002F0E6FA41EC1B0B9FED140B53EC57
:104A4000102B02F057F941EC190BB4F9160000EEE7
:104A5000100AB8EEC00ADFED0F0A20EE200A10EEB1
:104A6000101A084602F022FC41EC1A0B53EC192BE9
:104A700002F098F841EC180B02F094FAB4F9161011
:104A800000EBC1003060BDEC088B70BD0000000081
:104A900000408F40A69B443E70B52DED088B064626
:104AA0000C461546287BE97A40EA012000B22082B4
:104AB000204600F033F8B4F9100002F0A2FA9FED9E
:104AC000140B53EC102B02F015F941EC190BB4F94F
:104AD000160000EE100AB8EEC00ADFED0F0A20EE55
:104AE000200A10EE101A084602F0E0FB53EC192BD6
:104AF00002F058F802F056FAB4F9161001EB011260
:104B000002EB811108443060BDEC088B70BD0000E1
:104B100000000000000059401F856B3F818A028A17
:104B2000891A09B24182B0F91210B1F5805F04DD33
:104B3000C18A491C09B2C18208E0B0F9121011F50E
:104B4000805F03DAC18A491E09B2C182018A81826B
:104B50007047000029B1064A12680243044B1A60EC
:104B600004E0034A12688243014B1A607047000058
:104B70003038024029B1064A12680243044B1A60D9
:104B800004E0034A12688243014B1A607047000038
:104B90004038024029B1064A12680243044B1A60A9
:104BA00004E0034A12688243014B1A607047000018
:104BB0002038024029B1064A12680243044B1A60A9
:104BC00004E0034A12688243014B1A6070470000F8
:104BD0004438024029B1064A12680243044B1A6065
:104BE00004E0034A12688243014B1A6070470000D8
:104BF00024380240F0B500210022002402250026BE
:104C00000223324F3F6807F00C0121B1042905D07F
:104C1000082937D105E02E4F076036E02D4F076099
:104C200033E02A4F3F1F3F68C7F38056274F3F1F8F
:104C30003F6807F03F036EB1264FB7FBF3F7DFF88D
:104C40008CC0ACF1040CDCF800C0CCF3881C07FB72
:104C50000CF40CE01E4FB7FBF3F7DFF870C0ACF1BB
:104C6000040CDCF800C0CCF3881C07FB0CF4174FD5
:104C70003F1F3F68C7F301477F1C7D00B4FBF5F77A
:104C8000076002E0124F076000BF00BF0F4F3F6890
:104C900007F0F0010909104F7A5C0768D7404760B8
:104CA0000A4F3F6807F4E051890A0B4F7A5C476866
:104CB000D7408760054F3F6807F46041490B064FB6
:104CC0007A5C4768D740C760F0BD000008380240F2
:104CD0000024F40000127A00EC04002010B51748FC
:104CE00000881649498808441449898808441349AA
:104CF000C9880844A0F5805000280DDD0F480088C1
:104D00000E49498808440D49898808440B49C988D7
:104D10000844A0F580500CE00848008807494988FD
:104D200008440649898808440449C9880844C0F5EC
:104D30008050082801DDFFF76BF910BD0005002049
:104D400010B5FDF7C9FD05280BD0FDF7C5FD0928F5
:104D500007D0FDF7C1FD0A2803D0FDF7BDFD0B28E4
:104D600043D100BF40484088A0F580603F49B1F979
:104D70000010401A01280CDD3B484088A0F58060F7
:104D80000A2806DD3A480088401C00B238490880ED
:104D90001FE035484088A0F580603449B1F9001023
:104DA000401AB0F1FF3F0DDA2F484088A0F580602F
:104DB00010F10A0F06DA2E480088401E00B22C4976
:104DC000088006E028484088A0F5806000B22849A5
:104DD000088025488088A0F5806000B225490880B9
:104DE0002348B0F900002149088000BF1E48008810
:104DF000A0F580602049B1F90010401A01280CDDAF
:104E000019480088A0F580600A2806DD1B48008844
:104E1000401C00B2194908801FE013480088A0F523
:104E200080601549B1F90010401AB0F1FF3F0DDA6A
:104E30000D480088A0F5806010F10A0F06DA0F48CF
:104E40000088401E00B20D49088006E00648008830
:104E5000A0F5806000B2094908800848B0F9000058
:104E60000549088010BD0000000500209E010020BB
:104E70008E01002092010020A0010020900100205E
:104E800000B5024602B900BD1078517840EA012011
:104E9000C0F30A00314988805078C010917840EA08
:104EA0004110C0F30A002D49C88090788011D17854
:104EB00040EA8100117940EA8120C0F30A002749C5
:104EC000088010794010517940EAC110C0F30A00FF
:104ED0002249488050790011800808725079C0F347
:104EE000011048729079D17940EA012000B21B4943
:104EF0004881107A517A40EA012001B21748818135
:104F0000907AD17A40EA012001B21448C181117B24
:104F10000174517B4174907B10498874D17B0F4898
:104F2000C1740F4890F90000401C90B90B480188EB
:104F30000088A0F58060022303FB10100749088059
:104F4000084641884088A0F5806003FB10100349A3
:104F50004880FDF7D3FF00BF95E700000005002063
:104F60009901002010B5FDF7B7FC052817D10020E6
:104F700013E09FED9B0A10EE101A00EB4012994BC4
:104F800003EB420251609FED980A10EE101A00EBFD
:104F9000401203EB42021162401C0428E9DBFDF7DA
:104FA0009BFC05280BD0FDF797FC092807D0FDF7DF
:104FB00093FC0A2803D0FDF78FFC0B284ED18B48B9
:104FC000C07C88B98948807C70B98848B0F90A00EB
:104FD000002803DD8548B0F90A0003E08348B0F9F2
:104FE0000A004042032803DD01208149087035E0B2
:104FF0007E480088A0F58060002804DD7B4800889A
:10500000A0F5806003E079480088C0F5806003283F
:1050100021DC76484088A0F58060002804DD7348D4
:105020004088A0F5806003E070484088C0F580604B
:10503000032810DC6D488088A0F58060002804DD1E
:105040006A488088A0F5806003E068488088C0F5E1
:105050008060032802DD00206549087064480078FC
:1050600010B9FFF76DFE08E061480078012804D10F
:10507000604A61496148FFF717F96048B0F90000DC
:105080005F4908805D48B0F900005B49B1F9001044
:1050900008445849B1F90010084400EB400101EB05
:1050A000C000584908615548B0F9000040425249D3
:1050B000B1F9001008444F49B1F90010084400EB61
:1050C000400101EBC0004F4948614C48B0F9000075
:1050D0004949B1F90010401A4649B1F90010084495
:1050E00000EB400101EBC000464988614348B0F93C
:1050F000000040424049B1F90010401A3D49B1F961
:105100000010084400EB400101EBC0003D49C861BC
:105110000846FFF76DF83B4890ED001AB8EEC11A4B
:10512000F0EE410A90ED041AB8EEC11AB0EE410A51
:105130002C48FFF779F9BDEEC00A324880ED100A1D
:1051400090ED011AB8EEC11AF0EE410A90ED051A81
:10515000B8EEC11AB0EE410A22484230FFF764F9B6
:10516000BDEEC00A274880ED110A90ED021AB8EE94
:10517000C11AF0EE410A90ED061AB8EEC11AB0EE6F
:10518000410A18488430FFF74FF9BDEEC00A1D48A8
:1051900080ED120A90ED031AB8EEC11AF0EE410A42
:1051A00090ED071AB8EEC11AB0EE410A0D48C630AC
:1051B000FFF73AF9BDEEC00A124880ED130AFDF779
:1051C0008BFB052807D0FDF787FB072803D0FDF7E9
:1051D00083FB092802D10B48FDF768F910BD0000D8
:1051E000295C0F3D3000002049828B4700050020DC
:1051F0009801002092010020900100208E010020E3
:105200009C0100206C05002010B50446234800785E
:1052100060B92348007848B9012C07D121480078AB
:1052200008B9012000E000201E4908701D480078E0
:1052300001280BD100201C4908701C4890F8200060
:10524000012809D101211848C17105E00021164843
:10525000C17100201449C8701548007848B9114838
:105260000078012805D100F0DBF8012000F080F87B
:105270000CE00F480078012808D10A48007828B9C6
:10528000002000F0CDF8002000F072F8054800780A
:10529000074908700248047010BD00009404002003
:1052A00061040020600400205E080020F407002054
:1052B0006204002070470000134890F83E00012867
:1052C0001ED01248006841F28831884203D288001B
:1052D0000F49086017E00D48006841F288318842A4
:1052E00009D90A48006841F27071884203D200204F
:1052F0000749086007E044F620600549086002E0BD
:105300000020034908607047F4070020B401002022
:105310003C0C004010B5002108E04278C1F10703C1
:105320001A4102F00103114A5354491C0429F4DBC9
:10533000002109E04278C1F103031A4102F00102A1
:105340000A4B9B1F5A54491C0429F3DB00210AE035
:105350008278C1F107031A4102F00103034CA41F34
:105360000A1DA354491C0229F2DB10BD5A08002073
:10537000014609B1012000E000206FF48E72504315
:105380001E22A2EB8000254A906309B1012000E0B3
:1053900000206FF48E7250431E22A2EB80001F4A41
:1053A000D0631046806AD26A024409B1012000E04D
:1053B00000206FF48E7358431E23A3EB800002235A
:1053C00003FB1020002812DD1448806A134AD26AB9
:1053D000024409B1012000E000206FF48E735843AD
:1053E0001E23A3EB8000022303FB102010E00B48D8
:1053F000806A0A4AD26A024409B1012000E0002012
:105400006FF48E7358431E23A3EB8000C2EB400061
:105410001E2801DA012070470020FCE7F00500207B
:10542000014609B1012000E000206FF48E72504364
:105430001E22A2EB8000254A106309B1012000E082
:1054400000206FF48E7250431E22A2EB80001F4A90
:1054500050631046006A526A024409B1012000E01C
:1054600000206FF48E7358431E23A3EB80000223A9
:1054700003FB1020002812DD1448006A134A526A08
:10548000024409B1012000E000206FF48E735843FC
:105490001E23A3EB8000022303FB102010E00B4827
:1054A000006A0A4A526A024409B1012000E0002061
:1054B0006FF48E7358431E23A3EB8000C2EB4000B1
:1054C0001E2801DA012070470020FCE7F0050020CB
:1054D0000CB50020019000903448006840F4803002
:1054E0003249086000BF3148006800F40030009085
:1054F0000198401C0190009818B90198B0F5A06F70
:10550000F1D12A48006800F4003010B10120009069
:1055100001E0002000900098012846D12348403047
:10552000006840F080502149403108602048006800
:1055300040F480401E4908601C48083000681B4940
:10554000083108600846006840F4004008600846DA
:10555000006840F4A05008601648091F0860081F42
:10556000006840F08070091F086000BF0F480068A5
:1055700000F000700028F9D040F205600E49086084
:105580000A480830006820F0030008490831086024
:105590000846006840F00200086000BF0348083079
:1055A000006800F00C000828F8D10CBD003802405B
:1055B0000070004008544007003C02400149087058
:1055C00070470000A80100200149087070470000E2
:1055D0001100002010B58C7B4B7B44EA03231AB2E8
:1055E000026010BD7047000010B51548006840F417
:1055F0007000134908601348006840F00100114929
:10560000086000200F49083108600E4800680E4904
:1056100008400C4908600D48091D0860081F006813
:1056200020F48020091F0860002006490C31086022
:10563000FFF74EFF4FF0006001498039086010BD50
:1056400088ED00E000380240FFFFF6FE1030002435
:105650001FB501211020FFF78DFA36208DF80000CC
:1056600001208DF801008DF802008DF803006846D6
:10567000FEF788FC5320ADF804000020ADF80600CA
:10568000ADF80C004FF47A70029001A9014800F0C7
:10569000ADF91FBD0010004010B50121074800F012
:1056A0003FF848B10121054800F02BF801210348DB
:1056B00000F024F8FCF702FB10BD000000100040D1
:1056C00010B50121064800F01FF8012211460448D8
:1056D00000F037F80121024800F010F810BD00007A
:1056E0000010004021B1028842F08002028004E0F4
:1056F00002884FF67F731A4002807047CA430282C5
:105700007047CA430282704721B1028842F0010209
:10571000028004E002884FF6FE731A400280704750
:1057200030B50246002000230024158A05EA010353
:10573000958905EA010413B10CB1012000E00020B5
:1057400030BD1AB183890B43838102E083898B4387
:105750008381704770B5002400220023058C4FF62A
:10576000FE7635400584028C8388048B4FF68F7556
:105770002C40B51E2C400D882C43751E2A408D8967
:105780002A434D882A43104DA84202D00F4DA8420B
:1057900013D14FF6F7752A40CD892A434FF6FB7592
:1057A0002A408D882A434FF6FF652B404FF6FF5560
:1057B0002B400D8A2B434D8A2B43838004838D68B5
:1057C0004563028470BD00000000014000040140F8
:1057D0000A460021018B4FF6F773194011430183EC
:1057E0007047000070B5002400220023058C4FF69E
:1057F000EF7635400584028C8388048B48F6FF756C
:105800002C404FF6FF452C400D884FF6FF7606EAF8
:1058100005252C434FF6DF752A408D8906EA0515CC
:105820002A434D8806EA05152A43154DA84202D0A1
:10583000144DA8421DD14FF67F752A40CD894FF6F1
:10584000FF7606EA05152A434FF6BF752A408D8874
:1058500006EA05152A434FF6FF352B404FF2FF7538
:105860002B400D8A06EA85052B434D8A06EA8505FD
:105870002B43838004838D688563028470BD0000A0
:1058800000000140000401400A460021018B4FF254
:10589000FF7319404FF6FF7303EA02231943018394
:1058A0007047000070B5002400220023058C4FF6DD
:1058B000FF6635400584028C8388848B4FF68F7594
:1058C0002C404FF6FC752C400D882C434FF6FF55AD
:1058D0002A408D894FF6FF7606EA05252A434D8832
:1058E00006EA05252A43154DA84202D0144DA842C8
:1058F0001DD14FF2FF752A40CD894FF6FF7606EA9B
:1059000005252A434FF6FF352A408D8806EA0525EE
:105910002A434EF6FF752B404DF6FF752B400D8A3E
:1059200006EA05152B434D8A06EA05152B438380AD
:1059300084838D68C563028470BD0000000001404F
:10594000000401400A460021818B4FF6F77319408D
:10595000114381837047000070B5002200230024AA
:10596000058C4EF6FF7635400584038C8488828B47
:1059700048F6FF752A404FF6FF452A400D884FF63E
:10598000FF7606EA05252A434DF6FF752B408D89E3
:1059900006EA05352B434D8806EA05352B430A4DAB
:1059A000A84202D0094DA84208D14BF6FF752C4001
:1059B0000D8A4FF6FF7606EA85152C438480828394
:1059C0008D680564038470BD00000140000401403F
:1059D0000A460021818B4FF2FF7319404FF6FF7387
:1059E00003EA0223194381837047000000220288E2
:1059F000184B98420ED0184B98420BD0B0F1804F04
:105A000008D0164B984205D0154B984202D0154B42
:105A1000984204D14FF68F731A404B881A43124BA9
:105A2000984207D0114B984204D04FF6FF431A40DA
:105A30000B891A4302804B68C3620B880385054BB0
:105A4000984202D0044B984201D18B7A03860123FD
:105A500083827047000001400004014000040040C0
:105A600000080040000C00400010004000140040FE
:105A700010B5FCF731FF09283CD18A48007A02288A
:105A800024D18848C088A0F58060502806DD012018
:105A9000854908700020854908700BE08148C0885E
:105AA000A0F5806010F1500F04DA00207E490870E4
:105AB0007E4908707E4800787B490978884203D087
:105AC00000207A49087000E000BF00BF76480078E7
:105AD000774908707448007801280BD17348007822
